:020000040800F2
:1000000000800120112C0008592C0008592C0008F0
:10001000592C0008592C0008592C00080000000039
:10002000000000000000000000000000592C000843
:10003000592C000800000000592C00089B160008ED
:10004000592C0008592C0008592C0008592C00087C
:10005000592C0008592C0008891700088F17000830
:10006000951700089B170008A1170008592C0008D5
:10007000592C0008592C0008592C0008592C00084C
:10008000592C0008592C0008592C0008592C00083C
:10009000592C0008592C0008592C0008A7170008F3
:1000A000592C000831130008592C0008451300088A
:1000B000491300085D13000871130008592C00084B
:1000C000592C0008592C0008592C0008592C0008FC
:1000D000592C0008512200086922000885220008D6
:1000E000BD170008592C0008592C0008592C00088D
:1000F000C1130008592C0008D5130008592C00081A
:10010000592C0008592C000885130008592C0008A8
:10011000A1220008B922000899130008AD130008B5
:10012000592C0008592C0008592C0008592C00089B
:1001300000000000000000000000000000000000BF
:1001400000000000000000000000000000000000AF
:10015000000000000000000000000000000000009F
:10016000000000000000000000000000000000008F
:10017000000000000000000000000000000000007F
:10018000000000000000000000000000000000006F
:10019000000000000000000000000000000000005F
:1001A000000000000000000000000000000000004F
:1001B000000000000000000000000000000000003F
:1001C000000000000000000000000000000000002F
:1001D000000000000000000000000000000000001F
:0401E0005FF8E0F1F3
:1001E40010B5054C237833B9044B13B10448AFF36D
:1001F40000800123237010BD88000020000000004F
:10020400B435000808B5034B1BB103490348AFF3E9
:10021400008008BD000000008C000020B4350008F8
:1002240010B590B02022002107A803F0E9F81422A9
:10023400002101A803F0E4F8102301220224CDE9EF
:100244000A234FF4601306A806940D940F9300F04C
:10025400DDF900B1FEE70F23CDE901344FF48063EB
:100264000390CDE90430214601A800F091FB00B1D0
:10027400FEE710B010BD704738B50E4B05461A782E
:100284004FF47A73B3FBF2F30B4A1068B0FBF3F04C
:1002940000F09CF8044658B90F2D09D802462946A7
:1002A4004FF0FF3000F042F82046044B1D6038BD8B
:1002B4000120FCE7000000202C00002004000020A6
:1002C400074A08B51368032043F01003136000F0D5
:1002D4001BF80020FFF7D0FFFFF7CDFF002008BD7B
:1002E40000200240034A044B11681B780B4413603E
:1002F400704700BFA400002000000020014B1868D4
:10030400704700BFA400002007490302CA6803F431
:10031400E06322F4E0621204120C134343F0BF635F
:1003240043F40033CB60704700ED00E0154B30B56B
:10033400DC68C4F30224C4F10703251D042B28BF81
:100344000423062D4FF0FF3594BF0024033C05FA27
:1003540003F321EA0303A54022EA0502A34000288F
:1003640043EA0203ACBF00F16040074A4FEA0313BB
:10037400DBB2ABBF00F5614000F00F0080F8003342
:10038400135430BD00ED00E014ED00E0002807DB5D
:1003940001234109034A00F01F00834042F8213041
:1003A400704700BF00E100E000280CDB0122064991
:1003B400430900F01F008240203341F82320BFF39B
:1003C4004F8FBFF36F8F704700E100E00138B0F149
:1003D400807F0BD24FF0E023F021054A586182F868
:1003E40023100020072298611A617047012070478A
:1003F40000ED00E0002808DB01224309034900F076
:100404001F008240603341F82320704700E100E080
:10041400704708B5FFF7FCFF08BD704710B50446E8
:1004240050B1437903F0FF0213B90271FFF7F5FFEE
:1004340001230020637110BD0120FCE710B50446C0
:1004440040B10223037101F0A1F800202061607122
:10045400207110BD0120FCE7012310B558B10468D8
:1004640001F01001226803FA01F122EA010222607C
:100474000371002010BD1846FCE790F821200346C4
:10048400022A06D0042282630120002283F820205D
:1004940070470268C06B116821F00E011160116889
:1004A40021F00101116001211A6C01FA02F242608B
:1004B400002083F82110E8E708B590F82130022BDA
:1004C40003D004238363012008BD036843491A68E9
:1004D40022F00E021A601A6822F001021A60404AE1
:1004E400934243D98B423AD014318B4239D01431E0
:1004F4008B4238D014318B4225D014318B4225D015
:1005040014318B4225D0934226D002F56272934275
:1005140025D01432934224D01432934223D014327F
:10052400934214BF4FF480334FF480532D4A5360E9
:10053400012380F82130002380F82030436B03B17D
:1005440098470020C0E74FF48053EFE74FF480331F
:10055400ECE74FF48013E9E74FF08073E6E70123FB
:10056400E4E71023E2E74FF48073DFE78B422ED0F9
:100574001D498B422DD014318B422CD014318B4227
:1005840019D014318B4219D014318B4219D09342B3
:100594001AD0164A93421AD01432934219D0143204
:1005A400934218D01432934214BF4FF480334FF463
:1005B40080530F4ABBE74FF48053FAE74FF480337C
:1005C400F7E74FF48013F4E74FF08073F1E701236A
:1005D400EFE71023EDE74FF48073EAE708000240E9
:1005E40080000240000402401C0002400804024053
:1005F40000000240044A08B55169014202D050612A
:1006040001F0AAF808BD00BF000401402DE9F34140
:10061400054638B30368DB0710D42B689F075ED404
:100624002B68190700F195802B685A0700F1C180E7
:10063400EB69002B40F02C81002029E0904C63688A
:1006440003F00C03042B07D0636803F00C03082B9E
:100654000AD16368DE0307D523689C03DDD56B6884
:10066400002BDAD1012013E06B68B3F5803F12D17F
:10067400236843F480332360FFF740FE0646236873
:100684009803CAD4FFF73AFE801B6428F7D90320E5
:1006940002B0BDE8F0819BB9236823F48033236062
:1006A400236823F480232360FFF728FE064623688B
:1006B4009903B2D5FFF722FE801B6428F7D9E6E739
:1006C400B3F5A02F236803D143F480232360CFE73D
:1006D40023F480332360236823F48023CBE7684C1E
:1006E400636813F00C0F07D0636803F00C03082B46
:1006F40010D16368DA030DD423689B0702D52B69F4
:10070400012BAFD123686A6923F0F80343EAC203DB
:10071400236085E72A695B4B6AB101221A60FFF7FF
:10072400EDFD064623689F07ECD4FFF7E7FD801B29
:100734000228F7D9ABE71A60FFF7E0FD0646236805
:1007440098077FF56DAFFFF7D9FD801B0228F6D916
:100754009DE7AA694A4E4B4BE2B10122C3F88024BB
:10076400FFF7CCFD0446736A9B070DD54FF4FA528C
:10077400454B1B68B3FBF2F3019300BF019B5A1E68
:100784000192002BF9D14FE7FFF7B8FD001B0228B7
:10079400E9D97CE7C3F88024FFF7B0FD0446736A07
:1007A4009F077FF541AFFFF7A9FD001B0228F6D98B
:1007B4006DE7334CE369D80024D40127E36943F09F
:1007C4008053E361E36903F080530093009B2F4E51
:1007D4003368D90518D5EB68012B26D1236A43F079
:1007E40001032362FFF78AFD41F288380646236A33
:1007F4009B073FD5002F3FF41BAFE36923F08053E1
:10080400E36115E70027E2E7336843F4807333605C
:10081400FFF774FD80463368DA05DCD4FFF76EFD1C
:10082400A0EB08006428F6D931E7ABB9236A41F29A
:10083400883823F001032362236A23F0040323622C
:10084400FFF75CFD0646236A9807D3D5FFF756FDEC
:10085400801B4045F7D91AE7052B236A03D143F0DF
:1008640004032362BAE723F001032362236A23F01B
:100874000403B6E7FFF742FD801B4045B7D906E7FE
:1008840000100240000042422C0000200070004092
:100894002A4C626802F00C02082A3ED00022022B85
:1008A400274B1A662CD1FFF729FD064623689901C8
:1008B40020D42B6AB3F5803F05D16268A96822F47D
:1008C40000320A436260696A62680B4322F474125C
:1008D4001343012263601A4B1A66FFF70FFD0546A6
:1008E40023689A013FF5A8AEFFF708FD401B0228D4
:1008F400F6D9CCE6FFF702FD801B0228D6D9C6E65E
:10090400FFF7FCFC054623689B017FF595AEFFF7D6
:10091400F5FC401B0228F6D9B9E6012B3FF4A2AE40
:1009240060682B6A00F480329A427FF49BAE6B6A53
:1009340000F47010C01A18BF0120A9E6001002408C
:10094400000042420D4A536803F00C01082912D1F9
:100954000B48C3F38341DB03405C09D55368094A60
:10096400C3F340435043084AD35CB0FBF3F07047F1
:10097400064B584370470348704700BF00100240BD
:10098400763A000800127A00743A000800093D0023
:100994002DE9F0410D46044610B90120BDE8F0816F
:1009A400444A136803F007038B4228D321688E0757
:1009B40030D4CA0743D43F4A136803F00703AB4259
:1009C40065D822683C4D12F0040F6CD1130706D58C
:1009D4006B68226923F4605343EAC2036B60FFF738
:1009E400B1FF6B68354AC3F30313D35CD840344B6F
:1009F4001860344B1868FFF73FFC0020CEE71368FB
:100A040023F007030B431360136803F007038B42BF
:100A1400C3D1CBE7284B11F0040F1EBF5A6842F430
:100A2400E0625A60080742BF5A6842F460525A6052
:100A34005A68A06822F0F00202435A60B9E762687B
:100A44001D4E012A33681AD113F4003FA5D07368F0
:100A540041F2883823F0030313437360FFF74EFC1D
:100A640007467368626803F00C03B3EB820FA2D0ED
:100A7400FFF744FCC01B4045F3D903208EE7022A4C
:100A840002D113F0007FE1E713F0020FDEE71368F1
:100A940023F007032B431360136803F00703AB42EF
:100AA4007FF47BAF8DE76B68E16823F4E0630B436D
:100AB4006B608BE70020024000100240D03A00082F
:100AC4002C00002004000020044B054A5B68C3F39B
:100AD400C223D35C034A1068D84070470010024018
:100AE400C83A00082C00002070477047036870B5AE
:100AF400DD681E690446B1070DD5AA070BD56FF052
:100B040002021A61012202779B699B0769D000F0F7
:100B1400B4FC00232377710710D56A070ED56FF054
:100B24000402236820461A61022222779B6913F487
:100B3400407F5CD000F0A1FC0023237733070FD55E
:100B440028070DD56FF00802236820461A61042295
:100B54002277DB69990750D000F08FFC00232377BC
:100B6400F20610D5EB060ED56FF01002236820466E
:100B74001A6108222277DB6913F4407F43D000F026
:100B84007CFC00232377F00708D5E90706D56FF02E
:100B94000102236820461A6100F04CFC320608D595
:100BA4002B0606D56FF08002236820461A6100F0F8
:100BB4009CF8700608D5690606D56FF040022368D4
:100BC40020461A61FFF791FFB20622D5AB0620D565
:100BD4006FF0200223682046BDE870401A6100F0DF
:100BE40083B800F048FC2046FFF77EFF91E700F051
:100BF40042FC2046FFF778FF9EE700F03CFC2046CD
:100C0400FFF772FFAAE700F036FC2046FFF76CFFFF
:100C1400B7E770BD1D4A0368904212D002F5006226
:100C240090420ED0B0F1804F0BD0A2F59832904292
:100C340007D002F58062904203D002F580629042B0
:100C440007D14A6823F070031343CA6823F440733E
:100C540013434A6923F08003134303608B68C36220
:100C64000B688362094B984203D003F500639842F2
:100C740001D10B690363012343610369DB0742BFAD
:100C8400036923F001030361704700BF002C014096
:100C940010B5044630B390F83D3003F0FF021BB9A1
:100CA40080F83C2001F006FA0223206884F83D30E5
:100CB400211DFFF7AFFF0123002084F8463084F89C
:100CC4003E3084F83F3084F8403084F8413084F872
:100CD400423084F8433084F8443084F8453084F852
:100CE4003D3010BD0120FCE770477047026802F1F7
:100CF4000C0353E8003F23F490730C3242E80031B4
:100D040002680029F2D102F1140353E8003F23F0F2
:100D1400010302F1140C4CE800310029F3D1036BF8
:100D2400012B0BD102F10C0353E8003F23F0100315
:100D340002F10C0C4CE800310029F3D1202380F897
:100D4400423000230363704790F84130202B10D1C8
:100D540089B182B1C28482840023212201620168A4
:100D6400436480F84120CA68184642F08002CA6091
:100D74007047022070470120704708B50023406A7D
:100D8400C385C38401F024FA08BD704790F842304B
:100D940007B5222B42D181680268B1F5805F836A6E
:100DA4003FD1016900293FD15268C2F3080223F8F8
:100DB400022B8362C38D013B9BB2C385002B2DD1D3
:100DC4000268D16821F02001D160D16821F48071DA
:100DD400D160516921F001015161202280F8422043
:100DE4004363026B012A026828D1036302F10C03F6
:100DF40053E8003F23F0100302F10C0C4CE80031DF
:100E04000029F3D11368DB0605D50191136801931A
:100E140053680193019B818DFFF7B7FF03B05DF821
:100E240004FB39B9016929B95268D2B21A70836ACC
:100E34000133BEE7526802F07F02F7E701F0C2F91E
:100E4400ECE70000036873B51A6804461607D9680E
:100E54005D690AD1960640F18B808D0640F1888049
:100E640002B0BDE87040FFF791BF15F001054BD00B
:100E740012F0010F02F0040363D11BB1636C43F061
:100E840002036364930749D5636C12F0080F43F0BF
:100E94000403636403D0636C43F008036364636C0A
:100EA400002B5FD0920604D58B0602D52046FFF7AF
:100EB4006DFF266820467369626C03F0400302F0FC
:100EC400080253EA02054FD0FFF710FF73695E066C
:100ED40045D5226802F1140353E8003F23F0400390
:100EE400143242E800310029F3D1E06B002836D0F7
:100EF400894B4363FFF7E0FA002833D0E06B436B80
:100F040002B0BDE87040184711F4907F30D012F061
:100F1400010F02F0040307D190070DD41007BED5CA
:100F240001F020032B43B5E7CE050FD4002BF3D1FA
:100F34009607F3D5002DA7D11507B0D511F0200FD2
:100F4400A8E7C80502D4002B98D1F1E7636C5607D3
:100F540043F001036364EBD5002DDDD08EE720461A
:100F640001F036F902B070BD01F032F96564F9E7B9
:100F7400206B012840F09480D50640F19180C8068A
:100F840040F18E80002201921A6801925A680192FF
:100F9400019A5A6952064DD5E16B0A68526892B2B9
:100FA400002ADFD0A08D9042DCD9E2858A69202A0C
:100FB40036D003F10C0252E8002F22F4807203F1C0
:100FC4000C0040E800210029F3D103F1140252E897
:100FD400002F22F0010203F1140040E8002100294F
:100FE400F3D103F1140252E8002F22F0400203F17E
:100FF400140040E800210029F3D1202284F8422083
:10100400216303F10C0252E8002F22F0100203F1D5
:101014000C0040E800210029F3D1E06BFFF72DFA22
:1010240002236363E38DA18DC91A89B22046FFF7B9
:10103400ACFE97E7E28DE08DA18D80B292B20028DC
:1010440090D0891A89B200298CD003F10C0252E89D
:10105400002F22F4907203F10C0545E800200028CB
:10106400F3D103F1140252E8002F22F0010203F13C
:10107400140545E800200028F3D1202284F84220FA
:10108400206303F10C0252E8002F22F0100203F156
:101094000C0545E800200028F3D102236363C5E76B
:1010A400160628D50D0626D594F84120212A7FF46A
:1010B40059AFA168226AB1F5805F17D12169A9B936
:1010C40032F8021BC1F3080159602262E28C013A32
:1010D40092B2E284002A7FF445AFDA6822F08002FB
:1010E400DA60DA6842F04002DA603BE7511C2162C0
:1010F40012785A60EAE750067FF534AF4A067FF566
:1011040031AFDA68204622F04002DA60202384F806
:10111400413001F05AF825E77F0D000890F840307F
:10112400012B11D02423026880F84130D36823F0C6
:101134000C0343F00803D360202380F841300023DC
:1011440080F84030184670470220704790F84030CD
:10115400012B11D02423026880F84130D36823F096
:101164000C0343F00403D360202380F841300023B0
:1011740080F84030184670470220704790F84120AC
:1011840090F84200104370470023C2854364222331
:101194008285026980F84230816203681AB1DA6894
:1011A40042F48072DA605A69002042F001025A6106
:1011B400DA6842F02002DA60704770B490F8426056
:1011C400202E06D141B13AB10024046370BCFFF76C
:1011D400DBBF022070BC70470120FBE7836810B5B9
:1011E40004462BB10322014698470023C4E9023385
:1011F40010BD836810B5044613B103220146984715
:10120400204610BD174B98421BD0B0F1804F1AD026
:10121400A3F59433984218D003F58063984216D00E
:1012240003F58063984214D003F58063984212D08A
:1012340003F58063984210D003F5903398420ED0A2
:10124400FEE700207047012070470220704703200A
:101254007047042070470520704706207047072018
:10126400704700BF002C0140024670B5044652F896
:10127400100FFFF7C7FF0546104600F049FE002394
:10128400084A04F1600642F82530E36004F1B00531
:10129400B54204D0103D2846FFF7ABFFF8E72046DF
:1012A40070BD00BFA8000020F8B504460846FFF74B
:1012B400A9FF236903B1FEE71B4D04F10C0245F8B5
:1012C40020200E2204F110063046C4E90C33C4E990
:1012D4000E33C4E91033C4E91623216184F82C3099
:1012E400A36484F84C3084F84D30E46000F08CFD45
:1012F40004F1600504F1B00728461035FFF76EFFCE
:10130400BD42F9D100234FF6FF72C4E90033C4E9AA
:101314000632C4E90833A360636180233046A362C4
:10132400BDE8F840FFF7B4BCA8000020034B1868E0
:1013340010B10430FFF7DABB704700BFA8000020EB
:10134400FFF7F4BF034B586810B10430FFF7CEBB6E
:10135400704700BFA8000020034B986810B1043008
:10136400FFF7C4BB704700BFA8000020034BD86838
:1013740010B10430FFF7BABB704700BFA8000020CB
:10138400034B186910B10430FFF7B0BB704700BFBE
:10139400A8000020034B586910B10430FFF7A6BB26
:1013A400704700BFA8000020034B986910B10430B7
:1013B400FFF79CBB704700BFA8000020034BD8690F
:1013C40010B10430FFF792BB704700BFA8000020A3
:1013D400FFF7F4BF0022C0E90022C0E902227047EF
:1013E400F8B504460E4600F1600500F1B007284642
:1013F4001035FFF7EFFFBD42F9D1002320463146F7
:101404002361FFF751FF2046F8BD826810B50AB981
:1014140001F02EFFC368BDE81040184708B500B9B5
:10142400FEE700F0EFFC0068836E13B16030FFF755
:10143400ECFF08BDFFF7F2BF10B500B9FEE7037F6C
:10144400013B072B10D8DFE803F004140F100F0F33
:101454000F12012400F0D6FC0068063400EB0410DF
:1014640083680BB1FFF7D1FF10BD0324F2E7042416
:10147400F0E70224EEE7FFF7DFBFFFF7DDBF01F07F
:1014840001BF01F007BF000088B006285AD8DFE882
:1014940000F004111D2935414D002B4B2B489A694E
:1014A40042F004029A619B6903F004030193019BD7
:1014B40008B07047244B26489A6942F008029A61A2
:1014C4009B6903F008030293029BF1E71E4B21483A
:1014D4009A6942F010029A619B6903F01003039326
:1014E400039BE5E7184B1C489A6942F020029A6175
:1014F4009B6903F020030493049BD9E7124B17481C
:101504009A6942F040029A619B6903F04003059393
:10151400059BCDE70C4B12489A6942F080029A6110
:101524009B6903F080030693069BC1E7064B0D48B5
:101534009A6942F480729A619B6903F480730793F9
:10154400079BB5E70020B3E7001002400008014004
:10155400000C01400010014000140140001801403B
:10156400001C01400020014008B5074900F01FFCA1
:10157400C0F3C430012802D0022802D0FEE70020C4
:1015840008BD1020FCE700BF443900080268094B7D
:101594009A420DD103F5CE331A6942F000521A6112
:1015A4001A6922F000521A61DA6922F00052DA61F3
:1015B400704700BF0074004010B50B4986B0044664
:1015C40000F0D3FB019060B12046FFF7CDFF30F06F
:1015D4001003014605D101A8FEF73EFF01A8FEF75E
:1015E4002DFF06B010BD00BF44390008F8B51449FA
:1015F400074600F0BAFBFFF705FE124E044656F804
:10160400203073B9B020FFF73AFF0D49054638463C
:1016140000F0ABFB01462846FFF7E2FE56F8243003
:101624001D6056F824301C6844B12046FFF71CFEA8
:101634002046BDE8F840B021FFF723BFF8BD00BF46
:101644008C360008A800002037B54FF0E025FEF7DF
:1016540055FEAB6904460093FEF750FEAB69844225
:10166400019369694FF47A7301F1010108D0019A79
:101674008A1A5A43B2FBF1F203FB002003B030BDD7
:10168400009A8A1A5A43B2FBF1F203FB0420F5E7ED
:10169400FEF734BE704708B5FEF724FEFEF7B9FE28
:1016A400FFF7F8FF08BD70470F4B84B0DA6942F0CA
:1016B4008052DA61DA6902F080520192019A9A69E1
:1016C40042F001029A619A6902F001020292029ABE
:1016D4005A6942F040025A615B6903F04003039384
:1016E400039B04B0704700BF001002400C4BD3F8BA
:1016F400FC20D2015EBFD3F8FC2042F08072C3F814
:10170400FC200022074B5A601A6842F001021A605A
:1017140000BF00BF00BF5868B0FA80F040097047AE
:1017240000ED00E0001000E008B5FFF7BDFFFFF793
:10173400DDFFFEF7C5FDFFF7B6FFFEF771FDBDE85F
:1017440008400148FEF76ABE240000200023C0E9D7
:101754000033C0E9023370470023012803F101027A
:101764000AD11422DBB25343054A181D1044816880
:1017740029B11A441369184713464008EDE7704726
:10178400C80000200120FEF735BF0220FEF732BF5B
:101794000420FEF72FBF0820FEF72CBF1020FEF711
:1017A40029BF38B505242025A8B2FEF723FF013C44
:1017B4004FEA4505F8D138BD38B506244FF48065A5
:1017C400A8B2FEF717FF013C4FEA4505F8D138BD32
:1017D400344A08B51046062300F8043BFFF7B6FF69
:1017E400072302F118001375FFF7B0FF082302F175
:1017F4002C0082F82830FFF7A9FF092302F14000EA
:1018040082F83C30FFF7A2FF0A23172102F15400AB
:1018140082F85030FFF79AFF02F1680082F86410F2
:10182400FFF794FF02F17C0082F87810FFF78EFF37
:1018340002F1900082F88C10FFF788FF02F1A400F7
:1018440082F8A010FFF782FF82F8B410282102F179
:10185400B800FFF77BFF02F1CC0082F8C810FFF755
:1018640075FF02F1E00082F8DC10FFF76FFF02F170
:10187400F40082F8F010FFF769FF02F5847082F833
:101884000411FFF763FF02F58E7082F81811FFF759
:101894005DFFBDE8084002F5987082F82C11FFF74F
:1018A40055BF00BFC800002038B5054CA4F5A0758D
:1018B400143C201DFFF79DFCAC42F9D138BD00BF9C
:1018C40008020020A04B82B09A69013842F001025C
:1018D4009A619B6903F001030193019B2B2834D87F
:1018E400DFE810F02C0035003C00430048004F00B6
:1018F40054005B0060006700700075007C00850088
:101904008A0091009A00A300A800AF00B800BD00AF
:10191400C400330033003300C900D000D500DC001C
:10192400E100E800ED00F400F900FE000301080105
:101934000D0112011901200127012D01834A536869
:1019440043F0E06343F00103536002B070477F4A01
:10195400536823F0010343F0E063F5E77B4A5368DF
:1019640043F0E06343F00203EEE7784A536823F060
:101974000203F0E7754A536843F0E06343F004035D
:10198400E2E7724A536823F00403E4E76F4A5368BA
:1019940043F0E06343F00803D6E76C4A536823F04E
:1019A4000803D8E7694A536843F0E06343F030031F
:1019B400CAE7664A536823F0300343F0E06343F018
:1019C4001003C1E7614A536823F03003C3E75F4A59
:1019D400536843F0E06343F0C003B5E75B4A5368E0
:1019E40023F0C00343F0E06343F04003ACE7574AFD
:1019F400536823F0C003AEE7544A536843F0E063EE
:101A040043F44073A0E7514A536823F4407343F00E
:101A1400E06343F4007397E74C4A536823F440733C
:101A240043F0E06343F480738EE7484A536823F439
:101A3400407390E7454A536843F0E06343F44063DE
:101A440082E7424A536823F4406343F0E06343F47B
:101A5400006379E73D4A536823F440637BE73B4ADC
:101A6400536843F0E06343F480536DE7374A5368A7
:101A740023F480536FE7354A536843F0E06343F43B
:101A8400004361E7314A536823F4004363E72F4A74
:101A9400536843F0E06343F4803355E72B4A5368BB
:101AA40023F4803357E7294A536843F0E06343F44F
:101AB400003349E7254A536823F400334BE7234AAC
:101AC400536843F0E06343F480233DE71F4A5368BF
:101AD40023F480233FE71D4A536843F0E16333E76F
:101AE4001A4A536823F4002335E7184A536843F02D
:101AF400E26329E7154A536823F480132BE7134A5A
:101B0400536823F0E0631FE7104A536823F0E0634F
:101B140043F0807318E70D4A536823F0E06343F001
:101B2400007311E7094A536823F0E06343F08063CC
:101B34000AE7064AD36943F48063D36105E7034A9D
:101B4400D36923F48063F8E70010024000000140E9
:101B540091FAA1F3B3FA83F370B50D0E0F2691FA3F
:101B6400A1F1B1FA81F144599B0006FA03F389000B
:101B740024EA03048A402243425170BD91FAA1F33E
:101B8400B3FA83F370B50D0E042691FAA1F1B1FAFC
:101B940081F144599B0006FA03F3890024EA030403
:101BA4008A402243425170BD431C04D00C3151F889
:101BB4000C3C5A1C01D100207047834201F10C01F6
:101BC400F5D1012070470000431C2DE9F34107467D
:101BD4000E4600D1FEE75C4B00F00F02C0F3031089
:101BE40001F0070853F82250FFF74EFCB8F1010F3B
:101BF400044615D195FAA5F3B3FA83F30321280E0D
:101C040022589B0001FA03F322EA030295FAA5F392
:101C1400B3FA83F39B00994011432150012247E01A
:101C2400C6F30620B8F1030F0AD801A353F828F02D
:101C3400471C0008211C0008AB1C0008CD1C000830
:101C4400FEE7FFF73FFE082229462046FFF780FF04
:101C540095FAA5F22B0EB2FA82F2E1580F23920004
:101C64009340C6F301160B4095FAA5F272BB012E00
:101C740045D0022E57D0354B9A6942F001029A6141
:101C84009B6903F001030193019BA7F10D03012B51
:101C94004DD82F4A536823F0E06343F080635360C8
:101CA40002B0BDE8F0817F2801D0FFF70BFE0922C6
:101CB40029462046FFF74CFF16F0080218BF0422FD
:101CC4002946FFF75BFFC3E70022BDE7B2FA82F2C1
:101CD400012E4FEA820223FA02F309D0022E1BD00E
:101CE400082BC8D1042229462046FFF731FFC2E75A
:101CF400042B04D1082229462046FFF729FF01239B
:101D04002A0A92FAA2F2B2FA82F2E168934021EA34
:101D140015210B43E360AEE7042B04D108222946C6
:101D24002046FFF715FFE36823EA1523F2E70F2F98
:101D340002D0133F012FB3D8054A536823F0E06360
:101D440043F00073ABE700BF883A0008001002407C
:101D5400000001400B685A1C01D1002070478342E7
:101D640001D1486870470C31F4E7431C01D0FFF7F8
:101D7400F1BF002070474B6813B94FF0FF30704734
:101D8400834201D1086870470C31F4E708B1FFF7CA
:101D9400F2BF4FF0FF30704703460868421C00D181
:101DA4007047984201D1886870470C31F5E7431CAD
:101DB40001D0FFF7F1BF70470F4B1A6842F00102E0
:101DC4001A6059680D4A0A405A601A6822F08472EF
:101DD40022F480321A601A6822F480221A605A6847
:101DE40022F4FE025A604FF41F029A604FF0006220
:101DF400034B9A60704700BF001002400000FFF8D8
:101E040000ED00E0043870470368394A88B0934213
:101E14000BD1384B9A6942F400629A619B6903F4CE
:101E240000630093009B08B07047B3F1804F0BD15F
:101E340003F50433DA6942F00102DA61DB6903F085
:101E440001030193019BEEE72B4A93420AD1294BEC
:101E5400DA6942F00202DA61DB6903F002030293F9
:101E6400029BE0E7254A93420AD1224BDA6942F009
:101E74000402DA61DB6903F004030393039BD2E7F2
:101E84001F4A93420AD11B4BDA6942F00802DA6115
:101E9400DB6903F008030493049BC4E7194A9342E3
:101EA4000AD1144BDA6942F01002DA61DB6903F0FB
:101EB40010030593059BB6E7134A93420AD10D4BD1
:101EC400DA6942F02002DA61DB6903F02003069349
:101ED400069BA8E70D4A9342A5D1064B9A6942F4A2
:101EE40000529A619B6903F400530793079B9AE796
:101EF400002C014000100240000400400008004093
:101F0400000C004000100040001400400034014068
:101F14000368244A934206D102F56442936923F488
:101F2400006393617047B3F1804F05D11E4AD369B2
:101F340023F00103D36170471C4A934205D102F593
:101F44000332D36923F00203F4E7194A934205D11B
:101F540002F50232D36923F00403EBE7154A9342F6
:101F640005D102F50132D36923F00803E2E7124AEE
:101F7400934205D102F50032D36923F01003D9E767
:101F84000E4A934205D102F5FE32D36923F02003B1
:101F9400D0E70B4A9342C5D102F55C42936923F41E
:101FA4000053BEE7002C0140001002400004004032
:101FB40000080040000C00400010004000140040E5
:101FC40000340140431C21D0194B984221D010D831
:101FD400A3F5006398421ED007D8B0F1804F1CD0FF
:101FE400A3F5806398421AD0FEE7124B984218D0AA
:101FF400FAE7114B984216D003F50063984214D0C7
:10200400A3F590339842EFD1372070476FF00D005D
:102014007047362070471E2070471C2070471D20D3
:10202400704732207047192070472C20704700BF3A
:1020340000100040000C0040002C0140431C21D043
:10204400194B984221D010D8A3F5006398421ED0B2
:1020540007D8B0F1804F1CD0A3F5806398421AD002
:10206400FEE7124B984218D0FAE7114B984216D06B
:1020740003F50063984214D0A3F590339842EFD14E
:10208400372070476FF00D007047362070471E20D0
:1020940070471C2070471D207047322070471B205A
:1020A40070472E20704700BF00100040000C004015
:1020B400002C014038B50446FFF7A6FE0068FFF780
:1020C40081FFD4E91212FEF731F92068FFF77AFF95
:1020D400FEF75CF922681046FFF7B0FF054610468C
:1020E400FFF770FF85420BD0D4E912122846FEF7A1
:1020F4001DF92068FFF7A2FFBDE83840FEF746B996
:1021040038BD000008B5074B90F8652053F822004D
:10211400FFF734F800F02200A0F12203584258419E
:1021240008BD00BF0802002008B5074B90F86520E1
:1021340053F82200FFF722F800F02100A0F1210358
:102144005842584108BD00BF0802002038B5154662
:102154000446B8B1016590F96400FEF725F9B4F8B6
:102164007630E16E9BB294F865001944064BAAB22E
:1021740053F82000FEF7E8FD94F96400BDE8384008
:10218400FEF704B938BD00BF0802002048B1836DD2
:10219400013306D190F86520024B53F82200FEF774
:1021A400BDBF70470802002048B1836D013306D1DA
:1021B40090F86520024B53F82200FEF7C7BF704722
:1021C40008020020836C04381847C36C043818478D
:1021D40030B5044650F8043985B01D6815F0010582
:1021E40012D0002200921A6800925B680093009B50
:1021F400FFF788FF40BB0122204604F1620105B0CD
:10220400BDE83040FEF7D9BF196811F0020106D0CD
:1022140001951A6801925B680193019BE8E71A68CB
:1022240012F0040206D002911A6802925B680293CB
:10223400029BDDE719680907DAD503921A6803924D
:102244005B680393039BD3E705B030BD08B5252035
:10225400FEF7D0F8024B1868BDE80840FEF7F2BD5F
:1022640008020020262008B5FEF7C4F8034B58687E
:1022740018B1BDE80840FEF7E5BD08BD080200201E
:10228400272008B5FEF7B6F8034B986818B1BDE8E7
:102294000840FEF7D7BD08BD0802002008B5342069
:1022A400FEF7A8F8024BD868BDE80840FEF7CABD9F
:1022B4000802002008B53520FEF79CF8024B186987
:1022C400BDE80840FEF7BEBD0802002003460A49E7
:1022D40010B508680344EFF30882934205D90C2231
:1022E4004FF0FF30054B1A6010BD054A054C121B18
:1022F4009342F4D20B60F7E7300000203006002050
:102304000080012000040000FEE700001622024BBA
:102314004FF0FF301A6070473006002001207047EC
:10232400024630B501444AF201054FF6FF708A4275
:1023340000D130BD082412F8013B584000F00103DD
:10234400400813B180EA050398B2631E13F0FF043A
:10235400F4D1ECE7154A10B59369154C43F4804366
:1023640043F004039361134B5A6822F0F0025A605D
:102374005A6842F0B0025A605A6822F470625A6095
:102384005A6842F480625A600023E3602361636107
:10239400FEF79AFB4FF4165300F59650B0FBF3F09A
:1023A40042F20C03A060E36010BD00BF00100240C5
:1023B4000038014000080140024B1A681206FCD59F
:1023C400586070470038014010B5044601448C42FF
:1023D40000D110BD14F8010BFFF7EEFFF7E7000082
:1023E400044B186810F00E0F18BF5B68C0F3401060
:1023F400704700BF00380140024A13685B06FCD5F1
:10240400704700BF0038014038B5434B434CDA698C
:1024140042F00072DA619A6942F009029A61A3F506
:1024240082335A6822F00F025A605A6842F004025A
:102434005A605A6822F0F0025A605A6842F0B002B8
:102444005A60374A536823F4C04343F480435360CB
:10245400236823F002032360236843F0010323600D
:1024640000F0DCFC00F164056368DA0746D52D4B07
:102474002A4DE361236843F040032360236823F07B
:1024840010032360D4F8003243F00103C4F800328F
:10249400D4F81C3223F00103C4F81C32D4F80432FB
:1024A40023F00103C4F80432D4F80C3243F00103DE
:1024B400C4F80C32D4F8143223F00103C4F81432F3
:1024C4000023C4F84032C4F84432D4F81C3243F038
:1024D4000103C4F81C32D4F8003223F00103C4F819
:1024E4000032236823F00103236000F097FC00F11D
:1024F40064046B68DB0708D4012005E000F08EFC5F
:10250400401B0028B0DB002038BD00F087FC001B16
:102514000028EEDBF7E700BF001002400064004033
:102524000000014003003A01082A2DE9F8438146DE
:10253400884615461F4608D800F072FC04463A4EF9
:1025440000F06EFC031BBB4202D30020BDE8F883FD
:10255400B368590158D4B3681A0163D4B368DB0073
:10256400EED5022651E00022134618F80210D000DE
:102574008140032A43EA01031ED1042D21D80020FF
:10258400A360E060236843F00103236000F048FC8B
:1025940005464EB3012E0CBF4FF000684FF0805833
:1025A400214C00F03DFC431BBB42A3681FD31EBB60
:1025B40043F08003A360C8E70132D1B2A942D4D367
:1025C400DBE70422002018F802104FEAC20CACF139
:1025D400200C01FA0CF1072A40EA0100D0D00132A4
:1025E400D1B2A942EFD3CBE74FF08068D8E713EA22
:1025F400080FD6D00120A9E7012E02D143F40043ED
:10260400D8E743F40003D5E70026340104F18044FD
:1026140004F5CB444FEA495323606560002DA2D1F1
:102624002B46ACE70126F0E700640040002307B521
:10263400CDF80230ADF8063003238DF8013027239E
:102644008DF80000062168468DF80530FFF768FE16
:10265400084AADF80600FFF7C3FE40B908216846F2
:10266400FFF7B2FE03B05DF804EBFFF7C5BE536895
:10267400F1E700BF00380140032BF8B504461E46BD
:1026840001D90020F8BD5229FBD907789742F8D127
:102694004378032BF5D183784E2BF2D15121B0F836
:1026A4005150FFF73DFEA842EBD12C4DB1016F54C0
:1026B400B4F8032005EB861652BA728093B2B4F8CC
:1026C4000520E01D52BAB2800A1D2A4404F12707EE
:1026D40030F8026B76BAB84222F8026FF8D1B4F837
:1026E40027200D4452BAEA84B4F8292052BA2A8524
:1026F400B4F82B2052BA6A85B4F82D2052BAAA85B0
:10270400B4F82F2052BAEA85B4F8312052BA2A8696
:1027140091B2B4F8332052BA6A8690B2B4F8352034
:10272400642852BAAA86B4F8372052BAEA86B4F8B2
:10273400392052BA2A87A4D86429A2D840F6AC52C8
:10274400A3F6B8339BB293429BD8012485F83A4050
:1027540000F064FBE863204694E700BFBC0200205D
:1027640000231360536009B101231370012300B1E6
:1027740093701371502393714E23D37170470000EB
:1027840000212DE9F04F4FF001090846CB46884659
:102794000C460D460E468A468C460F460B46874A23
:1027A400A1B092F83AE0BEF1000F2CD040F2D35E13
:1027B400548E0BF0010B2744148E09F00109A44434
:1027C40054884FF07808A244B2F9044001332644F7
:1027D400B2F92840DBB22544D48E2043148F14EA86
:1027E4000E0F42F6EC2E18BF4FF0000B214314EAF3
:1027F4000E0FD48D18BF4FF0000904F1FF3EBEF157
:10280400630F88BF6424DFF8B8E140329645C8D12D
:10281400002B00F0A68095FBF3F5B7FBF3F7BAFBAA
:10282400F3FABCFBF3F305EB85056D0016F5A02F59
:10283400ADB2BAB2019340F39780624B9E4200F36B
:1028440096806FF0090C96FBFCF6622A40F29180A8
:10285400052C28BF0524BBF1000F08BF002406AADD
:10286400B9F1000F08BF4FF00008FFF779FF4FF4EC
:102874000772ADF820204FF4D772ADF826200A2253
:10288400019B5443ADF80E30002302FB08F8CDE958
:102894000A33ADF82240ADF82480ADF80C70ADF8E1
:1028A40010A0ADF81260ADF81450BBF1000F02D0C7
:1028B40080238DF82830B9F1000F05D09DF8283019
:1028C40043F040038DF828303F4A0CAB1068516840
:1028D400462203C300210DF13A0000F091FD40F2BD
:1028E4005532ADF8442004228DF84C2040F2563283
:1028F400ADF8502006228DF8582040F2593240F2AB
:102904005133ADF85C204FF45772ADF838300823DA
:10291400ADF8682040F25E3207258DF840308DF81E
:1029240064308DF870308DF87C3008AB0F9303ABB6
:10293400129304AB159306AB18930AAB1B93234E67
:102944000CAB234FADF874201E930EAC013D1DD18A
:102954000121CF2000F0EAF900F060FA1D4B283085
:10296400186021B0BDE8F08F47F6FF766DE71A4E88
:102974006BE7602A03D90A2C28BF0A246BE75E2A76
:102984007FF669AF142C28BF142464E741F288331E
:10299400227A61682088FFF7C7FD0028E1D00F4A3A
:1029A4003B687168B3FBF2F34FF4167253437268D9
:1029B400521A9342FBDC0C34C8E700BFBC0200206F
:1029C400BC03002009000500E03A0008001000E004
:1029D4002C000020B40200200080FFFF40420F00C2
:1029E40038B502211C2000F037F902211D2000F027
:1029F40033F902211E2000F02FF902211F2000F0DC
:102A04002BF90121C82000F027F90121C92000F089
:102A140023F90121CF2000F01FF901212D2000F01E
:102A24001BF90121CD2000F017F90121CE2000F07F
:102A340013F90121C82000F079F90021C92000F020
:102A440075F90021CF2000F071F900212D2000F04C
:102A54006DF90021CD2000F069F90121CE2000F0AC
:102A640065F9FFF777FCFFF7CFFC0024064B074D11
:102A7400187005EB841040220021013400F0C0FCE2
:102A8400042CF6D138BD00BF24020020BC02002073
:102A940070B500F0C3F9464D04462A7872B1454E2C
:102AA400454AFFF79DFC002861D1444B1B68E31A9B
:102AB400962B82BF424B2870187011E041490B6875
:102AC400C31AB3F5967F0BD3086010203A4B1A80D3
:102AD4003D4B1870FFF7AAFD01232B70374B1C6088
:102AE400002241F288301546384B93F83A1029B148
:102AF400D96B611A814288BF83F83A501032402A58
:102B040003F14003F1D1324B1B7843B1314A1368CE
:102B1400E31AB3F57A7F02D31460FFF731FE2E4D2A
:102B24002B683BB1A34205D80021C92000F0FEF870
:102B340000232B60294D2B683BB1A34205D800210B
:102B4400CF2000F0F3F800232B60254A1368E31A22
:102B5400B3F57A7F2AD3C820146000F021F9BDE8C8
:102B64007040B0FA80F1C820490900F0DFB813883A
:102B740070687F2B9FBF591C11801A49C854118853
:102B840052298ED90E4E104A337812781548FFF721
:102B940073FD38B10121C92000F0C8F80E4A04F1D0
:102BA4002803136000232B70337099E770BD00BFB6
:102BB4003002002000380140320200202C020020A4
:102BC400250200202802002034000020BC0200203E
:102BD4002402002020020020B8020020B4020020B9
:102BE4001C0200203402002008B50320FDF78CFBF2
:102BF400BDE8084000F024B908B5AFF30080FFF742
:102C0400EFFEFFF745FF00F00DF9FAE7FFF7D4F800
:102C14000B480C490C4A002302E0D458C450043336
:102C2400C4188C42F9D3094A094C002301E013600B
:102C34000432A242FBD300F03FFCFFF7DDFF7047F4
:102C44000000002088000020303B0008880000209D
:102C540038060020FEE70000C3B2322B2DE9F04114
:102C64000D462AD82C4A00F4E06452F823301C4361
:102C7400621C4ED0294EC4F3031756F8273004F0D3
:102C84000F0823FA08F3DB0710D520462449FEF782
:102C94008BFF18B32046FEF78FFC012256F827302D
:102CA40002FA08F223EA020346F82730052D1FD85A
:102CB400DFE805F01F2B2527292D00F0C002C02ACC
:102CC40027D1CF2B25D8174B00F03F0253F82220F1
:102CD400114B00F4E06453F82230C8E7204612494F
:102CE400FEF762FF0028D8D02046FEF77FFCD4E729
:102CF400FEE700212046BDE8F041FEF765BF102144
:102D0400F8E72021F6E70321F4E70121F2E709219E
:102D1400F0E7BDE8F08100BFA8390008BC0300203B
:102D240044390008683900088C360008C3B2322BD5
:102D34001BD8174A00F4E06052F823301843431CB0
:102D440025D0C0F30313062B98BF124A00F00F00DE
:102D540098BF52F82320104B88BF002253F820302C
:102D6400C3F30F2391B11361704700F0C002C02A6E
:102D74000DD1CF2B0BD8094B00F03F0253F8222082
:102D8400034B00F4E06053F82230D7E753617047F7
:102D9400A839000808000020883A000868390008AB
:102DA400C3B2322B1CD8194A00F4E06052F8233025
:102DB4001843431C25D0C0F30313062B23D8144A0D
:102DC40000F00F0052F82330124A9B6852F820207A
:102DD400D84300EA122080B2B0FA80F0400970476C
:102DE40000F0C002C02A0CD1CF2B0AD80A4B00F045
:102DF4003F0253F82220054B00F4E06053F82230E0
:102E0400D6E70020704700239B68FFDEA83900083E
:102E140008000020883A000868390008FEF738BC2A
:102E2400FEF712BC08B5044B2BB1044800F00AF8B5
:102E340008B1AFF3008008BD00000000D8030020F3
:102E4400FEF772BCB0F80831B0F80421981A00F00B
:102E54003F007047B0F80831B0F804219BB29342A8
:102E64001ABFD0F8FC30985C4FF0FF30704790F8F0
:102E74000631B0F80A01C0B2834227BFC3F13F0351
:102E8400C018C01A00F1FF30704707B503688DF809
:102E9400071001225B680DF10701984703B05DF844
:102EA40004FB0000B0F87610826F10B50A4402F0FB
:102EB4003F02A0F87620B0F87610B0F8722089B2FC
:102EC4008A421AD0B0F876404032A4B2B0F87610F4
:102ED400121B544289B204F03F0402F03F02C1F1D4
:102EE400400158BF62428A4228BF0A4604498267A9
:102EF400FFF72CF94FF0FF3010BD0020FCE700BFB6
:102F0400A92E000803682DE9F0479B68044688460B
:102F14001646984701232374D4F8EC30B4F806918C
:102F240001338246C9F1400904F1940708D194F8A9
:102F340011312BB10023384684F81131FFF726F9FB
:102F4400236820469B6898470028F9D035464D45AC
:102F540023D8554521D8B4F80621D4F800015319D3
:102F6400402B10442FD82A46414600F0CBFAA946FC
:102F7400B4F8063138461D4405F03F05A4F806515F
:102F8400FFF7D2F830B94A4638461649C4F80C91CE
:102F9400FFF7DCF83046BDE8F087D14528BFD146BD
:102FA40023684A4641465B68204698472368204682
:102FB4009B689847A5EB0905C844B4F80691824676
:102FC400C9F14009C3E7C2F140094A46414600F04D
:102FD40099FAD4F80001A5EB090208EB090100F005
:102FE40091FAC5E7A92E0008C0F8F030009B914281
:102FF40008BF4FF0FF31C0F8F43000F11403C0F8FB
:10300400FC300023C0E93A2100F15402A0F8083151
:10301400C0E94023A0F80A317047037C70B5044628
:103024000D46A3B1FDF76AF90646B4F80621B4F8D3
:103034000A319BB29A420AD0002DF8D0FDF75EF90E
:10304400801B8542F1D8B4F80A31A4F8063170BD6A
:103054000021FFF7E2BF0000CBB2322B08D80E4AA2
:1030640001F4E06152F823301943C0F8EC107047C2
:1030740001F0C002C02A0CD1CF2B0AD8074B01F0B3
:103084003F0253F82220044B01F4E06153F822304C
:10309400EAE74FF0FF31E8E7A8390008683900088B
:1030A400CBB2322B08D80E4A01F4E06152F8233037
:1030B4001943C0F8E810704701F0C002C02A0CD1CF
:1030C400CF2B0AD8074B01F03F0253F82220044BC0
:1030D40001F4E06153F82230EAE74FF0FF31E8E70A
:1030E400A83900086839000873B54FF47A73164696
:1030F4000022C0E901231D4B044603604FF0FF3357
:10310400C0F8EC301A4B0D46984215D1C321FFF795
:10311400A3FFC221FFF7C4FF4FF0FF33012E08BF06
:10312400C4F8EC3000932046D4E93A214FF0FF3341
:10313400FFF75AFF02B070BD0E4B0F499A680F4B50
:1031440053F82200FEF711FE854202D1C321204626
:10315400DDE70B492846FEF719FE0749C4F8EC00E1
:103164002846FEF713FEC4F8E800D5E7F43A000851
:10317400D8030020683900082C360008A839000854
:10318400CC350008D0F8EC3010B5013304460ED12C
:103194000368DB68984794F8113143B9012304F1BB
:1031A400940084F81131BDE81040FEF7FDBF10BD56
:1031B40010B50446FFF7E6FFB4F80821B4F804316B
:1031C40092B29A4217BFD4F8FC204FF0FF30D05C83
:1031D40001331CBF03F03F03A4F8043110BD000009
:1031E400002202490248FFF77FBF00BF00440040AD
:1031F400D803002010B50446FFF710FEE0602368F2
:1032040020465B699847002808DAFFF707FEE36861
:10321400C01AA3689842F2D34FF0FF3010BDF8B53E
:1032240007460D460C468E18B44201D1601BF8BD0A
:103234003846FFF7DFFF031EF8DB04F8013BF3E732
:103244002DE9F0410746884616461D4673B1002411
:103254003846FFF7CFFF031E05DB434503D0335544
:103264000134A542F4D12046BDE8F0811C46FAE7BA
:1032740008B500F000F8062008B500F0F1F80120C8
:10328400FFF742F8024B0146186800F02DB800BF62
:1032940038000020024B0146186800F041B900BF15
:1032A4003800002070B50F4E0C463168054611B940
:1032B40000F0F2F830602146284600F0EDF8431C97
:1032C40003D14FF0FF34204670BDC41C24F0030426
:1032D400A042F8D0211A284600F0DEF80130F2D1DD
:1032E400EFE700BFF00400202DE9F843CD1C25F0E2
:1032F400030508350C2D38BF0C25002D064601DBCF
:10330400A94204D90C2333600020BDE8F883DFF818
:10331400D48000F069F8D8F800301C4644BB294634
:103324003046FFF7BFFF431C044658D1D8F800408D
:103334002746002F43D1002C4BD023683946304612
:1033440004EB030900F0A8F8814542D12168304616
:103354006D1A2946FFF7A6FF01303AD023682B44A3
:103364002360D8F800305A6862BBC8F800700FE0D8
:103374002268521B20D40B2A17D96119A342256055
:1033840018BF5960636808BFC8F8001062514B60E9
:10339400304600F02FF804F10B00231D20F0070045
:1033A400C21A1CBF1B1AA350AFE76268A3420CBF2A
:1033B400C8F800205A60EBE723466468AEE73C4651
:1033C4007F68B6E71A465B68A342FBD100235360CB
:1033D400DEE70C233046336000F00CF894E7056018
:1033E400D6E700BFF4040020014800F089B800BF0C
:1033F40034060020014800F084B800BF34060020E1
:1034040003460244934200D1704703F8011BF9E7D5
:103414001F2938B505460C4604D9162303604FF01E
:10342400FF3038BDC26B12B152F821304BB9284677
:1034340000F030F8224601462846BDE8384000F046
:1034440017B8012B0AD0591C03D11623036001209D
:10345400E7E70021204642F8241098470020E0E7DF
:10346400024B01461868FFF7D3BF00BF38000020A5
:1034740038B50023064D0446084611462B60FEF776
:1034840045FF431C02D12B6803B1236038BD00BF44
:1034940030060020FEF742BF38B50023054D044630
:1034A40008462B60FEF712FF431C02D12B6803B1C0
:1034B400236038BD3006002070B500260C4D0D4C3D
:1034C400641BA410A64209D100F072F800260A4D2C
:1034D4000A4C641BA410A64205D170BD55F8043BE8
:1034E40098470136EEE755F8043B98470136F2E772
:1034F400183B0008183B0008183B0008283B00084C
:10350400704770470A44914200F1FF3300D170477D
:1035140010B511F8014B914203F8014FF9D110BDD8
:1035240038B50546002940D051F8043C0C1F002B47
:10353400B8BFE418FFF758FF1C4A136833B9636037
:1035440014602846BDE83840FFF754BFA34208D9A9
:10355400206821188B4201BF19685B680918216033
:10356400EDE71A465B680BB1A342FAD9116850180B
:10357400A0420BD120680144501883421160E0D16D
:1035840018685B68084410605360DAE702D90C23BA
:103594002B60D6E7206821188B4201BF19685B684D
:1035A4000918216063605460CBE738BDF40400203F
:1035B400F8B500BFF8BC08BC9E467047F8B500BF1C
:0835C400F8BC08BC9E467047EC
:1035CC000300000000440040100800000A00000046
:1035DC0000380140100600001700000000380140C0
:1035EC00100500001B000000004800401000000007
:1035FC002B000000004C0040100000002B010000CC
:10360C0000480040100A000032000000005000404A
:10361C0010000000FFFFFFFF000000000000000092
:10362C0002000000004400401208000009000000E5
:10363C00003801401206000016000000003801405E
:10364C00120500001A0000000048004012000000A3
:10365C002A000000004C0040120000002A0100006B
:10366C0000480040120A00002C00000000500040EE
:10367C0012000000FFFFFFFF000000000000000030
:10368C00000000000000004012800000000100005B
:10369C00000000401290000000020000000C0040EE
:1036AC001280000001000000000000401212010016
:1036BC000101000000000040121001000102000096
:1036CC00000C00401200010002000000000000404D
:1036DC001292010002010000000000401291010052
:1036EC0002020000000C00401280010003000000E8
:1036FC000000004012120200030100000000004014
:10370C001211020003020000000C00401200020023
:10371C0006000000000400401295000007000000A5
:10372C00002C0140128D1000070100000004004025
:10373C001215010007020000003401401280100035
:10374C0008000000002C0140128E0000080100004F
:10375C00002C0140128D000009000000002C0140DB
:10376C00120E010009010000002C0140120D010095
:10377C000A000000002C0140128E01000A0100001A
:10378C00002C0140128D01000B000000002C0140A8
:10379C00120E02000B010000002C0140120D020061
:1037AC000F00000000000040129100000F0100000B
:1037BC0000000040128F000010000000002C01409F
:1037CC00120D1100100100000004004012950100C0
:1037DC0010020000000400401294010010030000CD
:1037EC00003401401200110011000000002C0140B7
:1037FC00128D11001101000000040040121502008E
:10380C001102000000040040121402001103000019
:10381C000034014012801100130000000000004031
:10382C00121101001301000000000040120F0100F2
:10383C001400000000040040129400001500000069
:10384C0000040040121401001600000000080040A3
:10385C00129700001700000000080040121701002A
:10386C001800000000080040129701001900000029
:10387C0000080040121702001A000000000000406F
:10388C00129001001A01000000000040128F01008C
:10389C001B00000000000040121002001B01000081
:1038AC0000000040120F02001D000000002C01401F
:1038BC00128E10001E000000002C0140120E110090
:1038CC001F000000002C0140128E11002600000089
:1038DC000004004012930000260100000034014057
:1038EC0012800000270000000004004012130100A9
:1038FC0027010000003401401200010028000000E4
:10390C000004004012930100280100000034014023
:10391C001280010029000000000400401213020074
:10392C00290100000034014012000200FFFFFFFFDC
:10393C0000000000000000000400000000740040C3
:10394C00038000000500000000740040030001002B
:10395C00FFFFFFFF0000000000000000000000005F
:10396C000100000002000000030000000400000041
:10397C000500000006000000070000001000000019
:10398C0011000000200000002100000022000000B7
:10399C0023000000240000002500000000000000AF
:1039AC000100000002000000030000000400000001
:1039BC0005000000060000000700000008000000E1
:1039CC00090000000A0000000B0000000C000000C1
:1039DC000D0000000E0000000F00000010000000A1
:1039EC001100000012000000130000001400000081
:1039FC001500000016000000170000001800000061
:103A0C00190000001A0000001B0000001C00000040
:103A1C001D0000001E0000001F0000002000000020
:103A2C002100000022000000230000002400000000
:103A3C0025000000260000002700000028000000E0
:103A4C00290000002A0000002B0000002C000000C0
:103A5C002D0000002E0000002F00000030000000A0
:103A6C0031000000320000000102020304050607C9
:103A7C0008090A0B0C0D0E0F1010000001010000BC
:103A8C0002020000040400000808000010100000EE
:103A9C002020000040400000808000000100010454
:103AAC0002000204040004040800080410001004BE
:103ABC00200020044000400480008004000000002E
:103ACC0001020304000000000000000001020304D6
:103ADC000607080950594C4F4E20202000000000CA
:103AEC0000000000000000008F2E0008092F0008C5
:103AFC00732E000855300008492E0008B531000817
:0C3B0C00592E0008233200084532000842
:103B1800ED2B000809020008D5170008E531000858
:083B2800E5010008AD180008DA
:103B3000010000001000000000080140000C0140DE
:103B4000001001400014014000180140001C014019
:103B500000200140003002400000000000127A0006
:103B600038060020100000003C000020000000008B
:103B7000F804002060050020C805002000000000B7
:103B80000000000000000000000000000000000035
:103B90000000000000000000000000000000000025
:103BA0000000000000000000000000000000000015
:083BB00000000000000000000D
:0400000508002C11B2
:00000001FF
